:020000040800F2
:1000000068080020FD0F00084D0200084F0200089C
:1000100053020008570200085B02000800000000BD
:100020000000000000000000000000005F02000867
:100030006102000800000000630200086502000879
:1000400017100008171000081710000817100008F4
:1000500017100008171000081710000817100008E4
:1000600017100008171000081710000817100008D4
:1000700017100008171000081710000817100008C4
:1000800017100008171000081710000817100008B4
:1000900017100008171000081710000817100008A4
:1000A0001710000817100008171000081710000894
:1000B0001710000827070008790800081710000823
:1000C0001710000817100008171000081710000874
:1000D00017100008730F0008171000081710000809
:1000E0001710000817100008171000081710000854
:1000F0001710000817100008171000081710000844
:100100001710000817100008171000081710000833
:100110001710000817100008171000081710000823
:100120001710000817100008171000081710000813
:100130001710000817100008171000081710000803
:1001400017100008171000081710000817100008F3
:1001500017100008171000081710000817100008E3
:1001600017100008171000081710000817100008D3
:1001700017100008171000081710000817100008C3
:10018000171000081710000800F002F800F03CF803
:100190000AA090E8000C82448344AAF10107DA45E2
:1001A00001D100F031F8AFF2090EBAE80F0013F0F8
:1001B000010F18BFFB1A43F001031847A83F0000C6
:1001C000C83F0000103A24BF78C878C1FAD8520757
:1001D00024BF30C830C144BF04680C6070470000C1
:1001E0000023002400250026103A28BF78C1FBD840
:1001F000520728BF30C148BF0B6070471FB503F0DE
:10020000FCFA1FBD10B510BD02F089FD1146FFF7C5
:10021000F5FF00F008F802F0A7FD03B4FFF7F2FFC6
:1002200003BC00F047FEA82000F0C2FD4FF4E1300F
:1002300000F04DFE012140F69F7000F0B3FC01215B
:1002400040F6330000F044FA00BFFEE7704700BFFD
:10025000FEE700BFFEE700BFFEE700BFFEE7704716
:1002600070477047704700000CB500200190009067
:100270007648006840F480307449086000BF7348D5
:10028000006800F4003000900198401C0190009834
:1002900018B90198B0F5A04FF1D16C48006800F48E
:1002A000003010B10120009001E000200090009883
:1002B000012846D165484030006840F080506349CD
:1002C000403108606248006840F44040604908607E
:1002D0005E48083000685D490831086008460068DB
:1002E00040F4004008600846006840F4A0500860F0
:1002F0005848091F0860081F006840F08070091FF7
:10030000086000BF5148006800F000700028F9D074
:1003100040F20570504908604C480830006820F0F1
:1003200003004A49083108600846006840F00200AE
:10033000086000BF45480830006800F00C0008283D
:10034000F8D10CBD10B54548006840F47000434931
:1003500008603E48006840F001003C490860002009
:100360003A4908310860394800683D490840374932
:1003700008603C48091D0860081F006820F48020C0
:10038000091F0860002031490C310860FFF76CFF3D
:100390004FF0006031498039086010BD70B5002011
:1003A0000022022300240221284D08352D6805F083
:1003B0000C0020B1042806D0082834D107E02A4DCB
:1003C0002A4E356033E02A4D284E35602FE01F4D10
:1003D0002D1D2D68C5F380541C4D2D1D2D6805F075
:1003E0003F0154B1224DB5FBF1F5184E361D36686C
:1003F000C6F3881605FB06F209E01B4DB5FBF1F5C7
:10040000124E361D3668C6F3881605FB06F20F4DF0
:100410002D1D2D68C5F301456D1C6B00B2FBF3F576
:10042000124E356003E0104D104E356000BF00BF26
:10043000064D08352D68C5F303150E4E705D0B4D46
:100440002D68C540094E356070BD0000003802407F
:100450000070004008544007003C024088ED00E076
:10046000FFFFF6FE103000240024F40000000020FE
:1004700000127A000400002000B52DED108B87B02B
:10048000B0EE408AF0EE608A9FED680B8DED040BB4
:10049000684880ED008B684890ED042BB0EE420A6E
:1004A000F0EE620A654890ED042BB0EE421AF0EED1
:1004B000621A53EC102B51EC110B02F003FF41ECCC
:1004C000190B5D4890ED022BB0EE420AF0EE620A85
:1004D0005A4890ED022BB0EE421AF0EE621A53EC3D
:1004E000102B51EC110B02F0EDFE41EC1B0B5148AF
:1004F00090ED042BB0EE420AF0EE620A504890ED07
:10050000042BB0EE421AF0EE621A53EC102B51ECB1
:10051000110B02F0D7FE41EC1E0B464890ED022B6A
:10052000B0EE420AF0EE620A454890ED022BB0EEC2
:10053000421AF0EE621A53EC102B51EC110B02F040
:10054000C1FECDE902013B4890ED002BB0EE420A1E
:10055000F0EE620A3A4890ED002BB0EE421AF0EE4F
:10056000621A53EC102B51EC110B02F0ABFECDE9EB
:1005700000019DED020B53EC102B9DED000B51EC97
:10058000100B02F0FFFB41EC1F0B53EC1E2B02F093
:10059000F9FB41EC1D0B2B4890ED000B53EC102B9D
:1005A00051EC1D0B02F08EFE41EC1C0B53EC1B2B8F
:1005B00002F0C8FF41EC1A0B53EC192B02F0C2FFFA
:1005C0001D4A03C21B4890ED020B80ED040B90ED19
:1005D000000B80ED020B184890ED020B80ED040B30
:1005E00090ED000B80ED020B144890ED002BB0EE67
:1005F000420AF0EE620A104890ED002BB0EE421A6B
:10060000F0EE621A53EC102B51EC110B02F06EFC61
:10061000094A03C2084890ED000B8DED040B9DEDD7
:10062000040B07B0BDEC108B00BD00000000000003
:100630000000000000010020180100201800002028
:10064000300000204800002000B587B00121084696
:1006500002F004F90121480702F049F91020059041
:1006600003208DF8180002208DF81B0005A91748FB
:1006700000F0DAFD00200190029003900220049027
:1006800001A9002002F049FA0121002002F062FADB
:100690000021084602F0ACFA07B000BD10B52DED00
:1006A000048BB0EE408AF0EE608AB0EE489AF0EE2D
:1006B000689A51EC190B02F071FD84B221460020BA
:1006C00002F096FABDEC048B10BD00000000024061
:1006D0007FB505460C460121022002F008F902957B
:1006E000ADF804400020ADF80600ADF80C0001A9FB
:1006F000FE4801F034F901221146FC4801F0D0FD1A
:100700000121FA4801F0B4F91D208DF80000002005
:100710008DF8010001208DF802008DF80300684675
:1007200000F091FC7FBD10B52DED088B0121EF4845
:1007300001F0CDFD00286CD0ED480088401CEC494C
:100740000880EC49EC4A128831F81210A1F5FA60E1
:1007500002F051FD41EC1A0BE84890ED000B53EC10
:10076000102B51EC1A0B02F0ADFD41EC190B9FED73
:10077000E40B53EC102B02F005FB41EC180B02F0DC
:100780000DFDE1490860DB49DB4A128831F812109F
:10079000A1F5FA6002F02FFD41EC1B0BD74890ED5C
:1007A000000B53EC102B51EC1B0B02F08BFD41ECBA
:1007B0001A0B9FEDD30B53EC102B02F0E3FA41EC34
:1007C000190B9FEDD20B53EC102B02F0AFFE41EC56
:1007D000180B02F0E3FCCC49091D0860C4480088EE
:1007E000CC490988884204DBC3480088401CC249C0
:1007F0000880C1480088C8490988884202DB002077
:10080000BD4908800020BA490880BB480088C34918
:1008100008600121B54801F06BFDBDEC088B10BDEF
:100820007FB505460C460121042002F060F80295D0
:10083000ADF804400020ADF80600ADF80C0001A9A9
:10084000B74801F08CF801221146B54801F028FDA7
:100850000121B34801F00CF91E208DF800000020A2
:100860008DF8010003208DF8020001208DF80300AF
:10087000684600F0E8FB7FBD10B52DED028B01212D
:10088000A74801F024FD00287ED0A64800680A2869
:1008900022DAA548008800EE100AB8EE400AA34804
:1008A00080ED000A90ED000A10EE101A084602F0E2
:1008B00033FF41EC180B9E4890ED000B53EC102BCE
:1008C00051EC180B02F05EFA994A03C29548006891
:1008D000401C94490860DBE09248006802F08BFC01
:1008E00041EC180B53EC182B914890ED000B51EC98
:1008F000100B02F0FBFA8F4A03C27E49874A126846
:1009000031F8120002F08EFC8B4A03C29FED8B0B74
:1009100053EC102B8B4890ED000B51EC100B02F0B8
:1009200031FA41EC180B834890ED000B53EC102B7F
:1009300051EC180B02F08AFC02D2012082490860B7
:100940009FED7E0B53EC102B7E4890ED000B51EC8D
:10095000100B02F0F7FD41EC180B764890ED000B00
:1009600053EC102B51EC180B02F0AAFD02D2002020
:10097000754908609FED620B53EC102B6E4890EDAB
:10098000000B51EC100B00E005E102F099FD33D2B1
:100990009FED6E0B6F4880ED000B6B480068B0B99F
:1009A0006D48006828B900206C490860401E6A49FB
:1009B00008606A48006828B99FED690B6A4880EDB5
:1009C000000B04E09FED610B674880ED000B5E4873
:1009D0000068012810D16148006828B99FED630BB9
:1009E000614880ED000B04E09FED600B5E4880EDF8
:1009F000000B0020584908609FED410B53EC102B71
:100A00004D4890ED000B51EC100B02F01FFC32D260
:100A10009FED530B4F4880ED000B4B4800680128B9
:100A200017D14D48006828B901204C490860801E44
:100A30004949086049480068012805D19FED430BEA
:100A4000494880ED000B04E09FED450B464880EDE2
:100A5000000B3D48006870B940480068012805D186
:100A60009FED420B404880ED000B04E09FED3F0BF3
:100A70003D4880ED000B9FED3A0B2D4880ED000BBB
:100A80009FED370B3B4880ED000B002025490860A7
:100A900039480068642805DA37480068401C364940
:100AA000086074E02048008800EE100AB8EE400AA2
:100AB0001E4880ED000A90ED000A10EE101A08465C
:100AC00002F02AFE41EC180BB0EE480AF0EE680A7C
:100AD000FFF7D2FC1B4880ED000B234890ED000B84
:100AE000FFF7CAFC254880ED000B49E000040040F8
:100AF000E000002004380008E20000205800002038
:100B00000000000000409F4034040140000000004D
:100B1000003EAF40D2000020D0000020CC000020DA
:100B200000080040C00000205000002030010020DC
:100B30007800002098000020A000002000000000A5
:100B40000000004090000020B000002000000000E5
:100B500000FEAF4068000020B4000020B800002074
:100B60000000000000000000600000200000000005
:100B700000FC9F4080000020BC000020A800002056
:100B800090ED000BFFF78AFD002004490860012169
:100B9000034801F0ADFBBDEC028B10BDBC00002092
:100BA0000008004030B58FB004460D4601210220F8
:100BB00001F0AEFE0121084601F050FE01210220A5
:100BC00001F04CFE0121042001F048FE0322062121
:100BD000734800F0B4FB03220721724800F0AFFB1A
:100BE000032207216E4800F0AAFB03220E216E4863
:100BF00000F0A5FB032206216A4800F0A0FB80203C
:100C00000D9002208DF8380000208DF83A008DF804
:100C10003B0003208DF839000DA9614800F004FB6A
:100C20004FF480400D9002208DF8380000208DF8A0
:100C30003A008DF83B0003208DF839000DA95A4881
:100C400000F0F2FA40200D9002208DF838000020CC
:100C50008DF83A008DF83B0003208DF839000DA97E
:100C60004F4800F0E1FA80200D9002208DF8380006
:100C700000208DF83A008DF83B0003208DF83900F4
:100C80000DA9484800F0D0FA40200D9002208DF8C0
:100C9000380000208DF83A008DF83B0003208DF8D5
:100CA00039000DA93F4800F0BFFAA8B2ADF82800FE
:100CB0006020ADF82A000B940020ADF830008DF8CC
:100CC00032000AA9394800F04AFE6020ADF814004D
:100CD0000120ADF816000420ADF81800601C400893
:100CE00007900020ADF82000ADF822004FF480708E
:100CF000ADF824000020ADF8260005A92B4800F02F
:100D0000C3FE0821294801F04CF86020ADF814001A
:100D10000120ADF816000420ADF81800601C400852
:100D200007900020ADF82000ADF822004FF480704D
:100D3000ADF824000020ADF8260005A91B4800F0FE
:100D4000DCFE0821194801F035F84FF40060ADF8D9
:100D500004004010ADF806008010ADF80800002037
:100D6000ADF80A004FF48050ADF80C000020ADF84B
:100D70000E004FF48040ADF8100001A90B4801F0BF
:100D80004FFA0121094800F055FE0121074800F003
:100D90006FFE0121054801F05CFA0FB030BD000084
:100DA000000802400000024000040240000401402C
:100DB00010B504466FF0040000F092F9E11704EB5F
:100DC0005171C1F3C701394A11701046007800EB28
:100DD0004001C1EBC0104FF6FF7101EAC000344979
:100DE000088010BD0146314A12784A434FF0E02393
:100DF0005A6100229A611A46126942F001021A6190
:100E000000BF4FF0E022106900F001021AB100F4B7
:100E10008032002AF5D04FF0E022126922F0010260
:100E20004FF0E0231A6100229A6170470146204A80
:100E300012884A434FF0E0235A6100229A611A4611
:100E4000126942F001021A6100BF4FF0E0221069FE
:100E500000F001021AB100F48032002AF5D04FF000
:100E6000E022126922F001024FF0E0231A61002211
:100E70009A61704770B504464FF4077094FBF0F028
:100E8000C6B24FF4077094FBF0F100FB114085B23D
:100E900005E04FF40770FFF7C9FF701EC6B2002EC1
:100EA000F7D115B12846FFF7C1FF70BDE40000205F
:100EB000E600002000BF704700BF4C4A128802F0D5
:100EC0004002002AF9D0C2B2484B9A80704710B550
:100ED00088B004460121084601F0C0FC0121102021
:100EE00001F016FD07220921414800F028FA0722E7
:100EF0000A213F4800F023FA4FF4C0600690022018
:100F00008DF81C008DF81D0000208DF81E000120BA
:100F10008DF81F0006A9364800F086F902940020DB
:100F2000ADF80C00ADF80E00ADF81000ADF81400EF
:100F30000C20ADF8120002A92C4800F0A0FA012103
:100F40002A4800F024FB012240F22551274800F0F6
:100F5000D4FB25208DF8040003208DF805008DF8C2
:100F6000060001208DF8070001A800F06CF808B019
:100F700010BD10B540F225511C4800F0F9FB10B32C
:100F80001A4800F033FBC4B21A48008800F400404D
:100F9000C8B91848008800F4804060B10A2C03D01A
:100FA00000201449088020E01248008840F40040E6
:100FB0001049088019E00D2C06D10E48008840F435
:100FC00080400C49088010E00A480088C0F30D00FA
:100FD00009490C5407480088401C06490880084607
:100FE0000088C72801DD0020088010BD00100140E6
:100FF00000000240EC00002040010020094880472A
:1010000009480047FEE7FEE7FEE7FEE7FEE7FEE7EA
:10101000FEE7FEE7FEE7FEE704480549054A064B02
:10102000704700004503000889010008680200209D
:101030006808002068040020680400203249014349
:10104000324A1160704770B5002100230F22C47826
:101050001CB32E4C246804F4E064C4F5E064C4F3CB
:101060000721C1F10404E3B20A4144789C40E1B293
:101070008478144021430C07210E254C05786155D6
:10108000047804F01F050124AC4005786D11AD0013
:1010900005F1E025C5F8004109E0047804F01F05DA
:1010A0000124AC401B4D0678761145F8264070BDF2
:1010B000194A0A400243154B1B1F1A60704739B189
:1010C000124A121D12680243104B1B1D1A6006E0E3
:1010D0000E4A121D126882430C4B1B1D1A6070478A
:1010E000042808D14FF0E021096941F004014FF0D4
:1010F000E022116107E04FF0E021096921F00401CD
:101100004FF0E022116170470000FA050CED00E09D
:1011100000E400E080E100E080FFFF1F10B504461E
:101120009848844208D10121084601F002FC0021C0
:10113000012001F0FEFB76E09348844208D10121B2
:10114000022001F0F6FB0021022001F0F2FB6AE030
:101150008E48844208D10121042001F0EAFB0021DD
:10116000042001F0E6FB5EE08948844208D10121B9
:10117000082001F0DEFB0021082001F0DAFB52E03C
:101180008448844208D10121102001F0D2FB0021C3
:10119000102001F0CEFB46E07F48844208D10121B7
:1011A000202001F0C6FB0021202001F0C2FB3AE024
:1011B0007A48844208D10121402001F0BAFB002185
:1011C000402001F0B6FB2EE07548844208D1012191
:1011D000802001F0AEFB0021802001F0AAFB22E07C
:1011E0007048844208D10121801501F0A2FB002142
:1011F000A01501F09EFB16E06B48844208D1012146
:10120000401501F096FB0021601501F092FB0AE009
:101210006648844207D10121001501F08AFB0021B4
:10122000201501F086FB10BDF0B50A460021002311
:10123000002400BF3DE0012505FA01F3156805EA29
:1012400003049C4234D105684F000326BE40B543D9
:10125000056015794E00B54006683543056015797F
:10126000012D02D01579022D16D185684F00032675
:10127000BE40B543856055794E00B540866835431C
:101280008560456801268E40B5434560456896797E
:101290008E40B6B235434560C5684F000326BE4058
:1012A000B543C560D5794E00B540C6683543C560C5
:1012B000491C1029BFD3F0BD4FF6FF71016000211A
:1012C000017141718171C171704708B54FF480326D
:1012D0000092009A0A430092009AC261C161009A8A
:1012E000C261C2690092C269009208BD0246002034
:1012F00013690B400BB1012000E00020704701464C
:10130000086980B270470246002053690B400BB158
:10131000012000E0002070470146486980B2704714
:1013200001837047418370470AB1018300E0418324
:1013300070474161704742694A4042617047F0B569
:10134000002300244D07ED0E02FA05F3CE1000F144
:10135000200555F826504E07F70E0F26BE40B54320
:10136000CF1000F1200646F82750CE1000F12005DE
:1013700055F8265045EA0304CE1000F1200545F843
:101380002640F0BD00000240000402400008024078
:10139000000C0240001002400014024000180240FD
:1013A000001C0240002002400024024000280240AD
:1013B00010B50446FA48844208D10121102001F0FA
:1013C000FCFA0021102001F0F8FA57E0F5488442B9
:1013D00009D10121480401F0DFFA00214FF4003067
:1013E00001F0DAFA4AE0F048844209D10121880488
:1013F00001F0D2FA00214FF4802001F0CDFA3DE057
:10140000EA48844209D10121C80401F0C5FA00214B
:101410004FF4002001F0C0FA30E0E548844209D1E1
:101420000121080501F0B8FA00214FF4801001F005
:10143000B3FA23E0DF48844208D10121202001F0E3
:10144000BCFA0021202001F0B8FA17E0DA48844203
:1014500009D10121880701F09FFA00214FF0804057
:1014600001F09AFA0AE0D548844207D101214005EB
:1014700001F092FA0021600501F08EFA10BD2DE90D
:10148000FF4705460E460024A14600BFA046B0898E
:1014900000B100BF2C8A24F44054F08804432C820D
:1014A000AC8941F20C608443B0883189084371896A
:1014B00008430443AC81AC8A24F44074B0890443EB
:1014C000AC82684601F0F9F8B548854202D0B948C7
:1014D000854202D1DDF80C9001E0DDF80890A88982
:1014E00000F4004040B109EBC90000EB091031687D
:1014F0004900B0FBF1F707E009EBC90000EB091068
:1015000031688900B0FBF1F76420B7FBF0F004010B
:101510002009642101FB1078A88900F4004040B143
:10152000322000EBC800B0FBF1F000F007000443EC
:1015300008E0322000EB08106421B0FBF1F000F06D
:101540000F0004432C81BDE8FF874FF41651016062
:1015500000218180C18001810C2141810021818194
:10156000704710B502460020108A20F470600B8886
:101570004C8823438C882343CC8823431843108210
:1015800010BD0021018041808180C180704721B160
:10159000828942F40052828104E082894DF6FF7311
:1015A0001A4082817047028B02F47F420283028BD1
:1015B0000A430283704721B1828942F4004282814A
:1015C00003E08289C2F30E028281704721B1828AD0
:1015D00042F40062828204E0828A4FF2FF731A4072
:1015E00082827047C1F30802828070470146888872
:1015F000C0F308007047028A4FF6F0731A40028267
:10160000028A0A430282704721B1828942F00202B3
:10161000828104E082894FF6FD731A40828170470F
:1016200082894FF2FF731A40828182890A43828144
:101630007047028A4FF6DF731A400282028A0A4319
:101640000282704721B1028A42F48042028204E0A1
:10165000028A4BF6FF731A4002827047818941F07B
:1016600001018181704721B1828A42F008028282A1
:1016700004E0828A4FF6F7731A4082827047028B29
:10168000D2B20283028B42EA01220283704721B167
:10169000828A42F02002828204E0828A4FF6DF735F
:1016A0001A408282704721B1828A42F010028282FF
:1016B00004E0828A4FF6EF731A4082827047828A72
:1016C0004FF6FB731A408282828A0A4382827047F5
:1016D00021B1828A42F00202828204E0828A4FF6BD
:1016E000FD731A40828270471AB1838A0B4383824A
:1016F00002E0838A8B4383827047F0B5034600245F
:1017000000260025002040F66A17B94200D100BF2C
:101710001846C1F3421401F01F06012707FA06F527
:10172000012C01D10C3004E0022C01D1103000E07A
:1017300014301AB107682F43076002E00768AF430F
:101740000760F0BD02460020B1F5007F00D100BF68
:1017500013880B400BB1012000E00020704701F41A
:101760000072B2F5007F00D100BFCA43028070470B
:1017700070B50246002400230025002040F66A16BA
:10178000B14200D100BFC1F3421501F01F03012691
:1017900006FA03F3012D13D19689334017E00000B8
:1017A000001001400044004000480040004C004050
:1017B000005000400014014000780040007C0040D0
:1017C000022D02D1168A334001E0968A33400C1272
:1017D000012606FA04F41688344013B10CB1012036
:1017E00000E0002070BD10B50022002340F66A140E
:1017F000A14200D100BF0A1201249440A3B2DC43ED
:10180000048010BD10B50446FE48844208D1012171
:10181000084601F0D2F80021012001F0CEF89DE049
:10182000B4F1804F08D10121084601F0B5F800213C
:10183000012001F0B1F891E0F348844208D1012180
:10184000022001F0A9F80021022001F0A5F885E0AE
:10185000EE48844208D10121042001F09DF80021C6
:10186000042001F099F879E0E948844208D1012187
:10187000082001F091F80021082001F08DF86DE0BA
:10188000E448844208D10121102001F085F80021AC
:10189000102001F081F861E0DF48844208D1012185
:1018A000202001F079F80021202001F075F855E0A2
:1018B000DA48844208D10121022001F07EF800219B
:1018C000022001F07AF849E0D548844209D101218B
:1018D000080401F072F800214FF4803001F06DF837
:1018E0003CE0D048844209D10121480401F065F868
:1018F00000214FF4003001F060F82FE0CA48844224
:1019000009D10121880401F058F800214FF480200A
:1019100001F053F822E0C548844208D1012140205B
:1019200001F03AF80021402001F036F816E0C048F6
:10193000844208D10121802001F02EF8002180206E
:1019400001F02AF80AE0BB48844207D10121801542
:1019500001F022F80021A01501F01EF810BD0022B0
:101960000288A84B98420ED0AC4B98420BD0B0F1F5
:10197000804F08D0A44B984205D0A44B984202D087
:10198000A34B984204D14FF68F731A404B881A43E9
:10199000A04B984207D0A04B984204D04FF6FF438B
:1019A0001A400B891A4302804B68C3620B88038577
:1019B000944B984202D0994B984201D18B7A03867E
:1019C0000123838270474FF0FF3141600021018085
:1019D00001814180817270470185828270470A4689
:1019E000002101884FF68F73194011430180704721
:1019F00041627047C16270470146486A70470146BC
:101A0000088D704721B1028842F00202028004E092
:101A100002884FF6FD731A400280704721B1028898
:101A200042F00402028004E002884FF6FB731A4081
:101A30000280704721B1028842F08002028004E0F7
:101A400002884FF67F731A400280704702884FF673
:101A5000F7731A40028002880A43028070470288A6
:101A60004FF6FF431A40028002880A430280704703
:101A700021B1028842F00102028004E002884FF6A0
:101A8000FE731A400280704770B5002400220023C4
:101A9000058C4FF6FE7635400584028C8388048BD6
:101AA0004FF68F752C40B51E2C400D882C43751EAB
:101AB0002A408D892A434D882A43524DA84202D09C
:101AC000564DA84213D14FF6F7752A40CD892A43C7
:101AD0004FF6FB752A408D882A434FF6FF652B4051
:101AE0004FF6FF552B400D8A2B434D8A2B438380A5
:101AF00004838D684563028470BD70B500240022A4
:101B00000023058C4FF6EF7635400584028C8388E0
:101B1000048B48F6FF752C404FF6FF452C400D888E
:101B20004FF6FF7606EA05252C434FF6DF752A406F
:101B30008D8906EA05152A434D8806EA05152A43CC
:101B4000304DA84202D0354DA8421DD14FF67F75C9
:101B50002A40CD894FF6FF7606EA05152A434FF64F
:101B6000BF752A408D8806EA05152A434FF6FF35D2
:101B70002B404FF2FF752B400D8A06EA85052B435B
:101B80004D8A06EA85052B43838004838D6885632F
:101B9000028470BD70B5002400220023058C4FF62E
:101BA000FF6635400584028C8388848B4FF68F75E1
:101BB0002C404FF6FC752C400D882C434FF6FF55FA
:101BC0002A408D894FF6FF7606EA05252A434D887F
:101BD00006EA05252A430B4DA84202D00F4DA84224
:101BE00038D14FF2FF752A40CD894FF6FF7606EACD
:101BF00005252A434FF6FF352A408D8806EA05253C
:101C00002A4319E0000001400004004000080040A1
:101C1000000C00400010004000140040000401408F
:101C200000400140004401400048014000180040CD
:101C3000001C0040002000404EF6FF752B404DF682
:101C4000FF752B400D8A06EA05152B434D8A06EADF
:101C500005152B43838084838D68C563028470BD22
:101C600070B5002200230024058C4EF6FF76354027
:101C70000584038C8488828B48F6FF752A404FF6D2
:101C8000FF452A400D884FF6FF7606EA05252A43D0
:101C90004DF6FF752B408D8906EA05352B434D889F
:101CA00006EA05352B43FE4DA84202D0FD4DA84261
:101CB00008D14BF6FF752C400D8A4FF6FF7606EAE9
:101CC00085152C43848082838D680564038470BDF0
:101CD000002101804180818081608181C1810182F8
:101CE0004182704770B50346002000241846183022
:101CF00001258D40ACB21D8CA5431D8409B1082976
:101D00000AD100EB610005684FF68F76354005601B
:101D10000568154305600FE00D1FC5F34E05284407
:101D2000056848F6FF763540056005684FF6FF7692
:101D300006EA02263543056070BD41637047816342
:101D40007047C1637047016470470A460021018BE8
:101D50004FF68F7319401143018370470A460021E3
:101D6000018B48F6FF7319404FF6FF7303EA022315
:101D70001943018370470A460021818B4FF68F7308
:101D800019401143818370470A460021818B48F630
:101D9000FF7319404FF6FF7303EA0223194381834F
:101DA00070470A460021018B4FF6F7731940114323
:101DB000018370470A460021018B4FF2FF731940DF
:101DC0004FF6FF7303EA02231943018370470A4663
:101DD0000021818B4FF6F7731940114381837047BF
:101DE0000A460021818B4FF2FF7319404FF6FF73B3
:101DF00003EA02231943818370470A460021018BBD
:101E00004FF6FB7319401143018370470A460021C6
:101E1000018B4FF6FF3319404FF6FF7303EA02239D
:101E20001943018370470A460021818B4FF6FB73EB
:101E300019401143818370470A460021818B4FF678
:101E4000FF3319404FF6FF7303EA022319438183DE
:101E500070470A460021018B4FF67F7319401143EA
:101E6000018370470A460021018BC1F30E014FF632
:101E7000FF7303EA02231943018370470A460021D6
:101E8000818B4FF67F7319401143818370470A4657
:101E90000021818BC1F30E014FF6FF7303EA022389
:101EA0001943818370470A460021018C4FF6FD7368
:101EB00019401143018470470A460021018C4FF6F6
:101EC000F77319401143018470470A460021018CC1
:101ED0004FF6DF7319404FF6FF7303EA02131943FD
:101EE000018470470A460021018C4FF67F73194028
:101EF0004FF6FF7303EA02131943018470470A4641
:101F00000021018C4FF6FF5319404FF6FF7303EA8F
:101F100002231943018470470A460021018C4FF2C5
:101F2000FF7319404FF6FF7303EA0223194301843C
:101F300070470A460021018C4DF6FF7319404FF699
:101F4000FF7303EA023319430184704730B500235D
:101F500001248C40A3B2048C9C430484048C02FAB8
:101F600001F5ADB22C43048430BD30B50023042408
:101F70008C40A3B2048C9C430484048C02FA01F5C7
:101F8000ADB22C43048430BD828B4FF2FF331A4034
:101F90008283828B4FF6FF7303EA01231A43828305
:101FA0007047F0B50C461546002100220026078C2C
:101FB0004EF6FF7C07EA0C070784818B028C4FF6F4
:101FC000FF7707EA043640F6FF4739404FF6FF77C0
:101FD00007EA052739434FF6FF7707EA0337394306
:101FE00045F6FF773A4046F480573A4381830284AE
:101FF000F0BD828B4FF6F3731A408283828B0A43C3
:1020000082837047F0B50C46154600210022002659
:10201000078C4FF6FF6C07EA0C070784818B028C54
:102020004FF6FF7707EA04264FF60C7739404FF654
:10203000FF7707EA03172F4339434FF2FF573A4020
:1020400046F480773A4381830284F0BD028B4FF2DD
:10205000FF331A400283028B4FF6FF7303EA01231A
:102060001A4302837047F0B50C4615460021002242
:102070000026078C4FF6EF7C07EA0C070784018BDC
:10208000028C4FF6FF7707EA041640F6FF47394007
:102090004FF6FF7707EA033739434FF6FF7703E040
:1020A000000001400004014007EA052739434FF6CC
:1020B0005F773A4046F010073A4301830284F0BD4F
:1020C000028B4FF6F3731A400283028B0A4302839A
:1020D0007047F0B50C46154600210022068C4FF6DD
:1020E000FE773E400684018B028C4FF60C76314021
:1020F0007E1C06EA03162E4331434FF6F576324036
:1021000044F00106324301830284F0BD70B50546F8
:102110000C46208850B92389A28861882846FFF799
:10212000D8FFE1882846FFF7CBFF25E02088042868
:102130000AD12389A28861882846FFF794FFE188A5
:102140002846FFF783FF17E0208808280AD1238953
:10215000A28861882846FFF755FFE1882846FFF7E7
:1021600048FF09E02389A28861882846FFF719FF04
:10217000E1882846FFF708FF70BD002101804180FB
:10218000012181800021C180018170472DE9F0414A
:1021900005460C4600260127608808B9022600E0A3
:1021A0000026A088012801D1022700E0012720880D
:1021B000A0B92389A28861882846FFF78AFFE188B1
:1021C0002846FFF77DFF23893A4631462846FFF728
:1021D0004AFFE1882846FFF739FF13E02389A288E8
:1021E00061882846FFF73FFFE1882846FFF72EFF6A
:1021F00023893A4631462846FFF76BFFE188284697
:10220000FFF75EFFBDE8F0810146486B704701466D
:10221000886B70470146C86B70470146086C704771
:102220000A884B881A438B881A43CB881A430B8938
:102230001A434B891A438B891A43A0F844207047EC
:102240000021018041808180C180018141818181A3
:10225000704731B1B0F8442042F40042A0F8442065
:1022600005E0B0F84420C2F30E02A0F84420704705
:1022700021B1828842F00402828004E082884FF615
:10228000FB731A408280704721B1828842F00102BC
:10229000828004E082884FF6FE731A408280704785
:1022A0001AB183890B43838102E083898B43838145
:1022B00070478182704702460020138A0B400BB1A1
:1022C000012000E000207047CA430282704730B509
:1022D0000246002000230024158A05EA010395899F
:1022E00005EA010413B10CB1012000E0002030BD6B
:1022F000CA430282704741EA0203A0F8483070479F
:102300001AB183890B43838102E083898B438381E4
:10231000704721B1828842F00802828004E08288FE
:102320004FF6F7731A408280704701894FF6F872B2
:102330001140018170470A46002101894FF68F73D1
:10234000194011430181704730B504460D462946B6
:102350002046FFF7F0FF208940F00700208130BDC4
:102360002DE9F04104460D4616461F46602D06D164
:102370003B46012231462046FFF775FE05E03B460D
:10238000012231462046FFF7A4FE29462046FFF7EA
:10239000D2FF208940F007002081BDE8F08130B5F0
:1023A0000C4600210189C9B24FF6FF7505EA0325E5
:1023B000154325432943018130BD2DE9F0410546F0
:1023C0000E4617469846002443463A46314628466C
:1023D000FFF7E5FF2C894FF6F870044044F007043E
:1023E0004FF68F70044044F070042C81BDE8F081FA
:1023F000F0B504460D4616461F463B463246294672
:102400002046FFF7CCFF208940F480402081F0BDBA
:1024100082884FF68F731A40828082880A438280B6
:10242000704702894FF6F8731A40028102890A4305
:102430000281704702894FF67F731A400281028938
:102440000A4302817047F0B50C4615461E4600212E
:10245000002200230189028B038C4FF6F877394064
:1024600021434FF6FC473A4040F201173A434FF6FA
:10247000DD773B404FF6FF7707EA06172F433B43D4
:10248000018102830384F0BD21B1828842F0800281
:10249000828004E082884FF67F731A408280704702
:1024A000A0F8501070470000F948006840F00100A3
:1024B000F74908600020F64908310860F4480068D0
:1024C000F4490840F2490860F348091D0860F348E0
:1024D000EF4984310860F0481038091D0860EC4865
:1024E000006820F48020EA4908600020E8490C31A7
:1024F0000860E7498C31086070470021E44A921C6B
:10250000117011460870704710B501460022002373
:1025100000204A11012A02D1DD4C236808E0022A7A
:1025200003D1DB4C7034236802E0D94C7434236847
:1025300001F01F02012494401C400CB1012000E076
:10254000002010BD38B5002000900024002500BFF9
:102550003120FFF7D9FF05460098401C00900098F5
:10256000B0F5A04F01D0002DF2D03120FFF7CCFF05
:1025700008B1012400E00024204638BD01460020B7
:10258000C34A106820F0F80040EAC10010607047AC
:10259000C349086070470021BD4A70321170117044
:1025A000012802D004280AD104E00121B84A70327F
:1025B000117005E00521B64A7032117000E000BFCD
:1025C00000BF7047B7490860704770B5049C41EA86
:1025D00082150126C6EB530645EA0645054345EA42
:1025E0000465AB4E361D356070BDAD490866704759
:1025F000820142EA0172A64B84331A607047A849EF
:102600008866704710B5830143EA016343EA0273A9
:102610009F4C8834236010BDA14908677047A049CA
:10262000C864704702460020994B0833186820F0B0
:10263000EC6042EA01031843954B08331860704779
:1026400002460020924B0833186820F0784042EA96
:10265000010318438E4B0833186070470146002071
:102660008B4A0832106820F003000843106070475E
:1026700087480830006800F00C00704701460020D1
:10268000834A0832106820F0F00008431060704759
:10269000014600207E4A0832106820F4E0500843CA
:1026A0001060704701460020794A0832106820F413
:1026B000604040EAC10010607047F0B50021002280
:1026C0000024022500260223714F08373F6807F0D7
:1026D0000C0121B1042905D0082937D105E0724F3A
:1026E000076036E0714F076033E0694F3F1D3F6878
:1026F000C7F38056664F3F1D3F6807F03F036EB13A
:102700006A4FB7FBF3F7DFF888C10CF1040CDCF873
:1027100000C0CCF3881C07FB0CF40CE0624FB7FB45
:10272000F3F7DFF86CC10CF1040CDCF800C0CCF35B
:10273000881C07FB0CF4564F3F1D3F68C7F3014749
:102740007F1C7D00B4FBF5F7076002E0564F076081
:1027500000BF00BF4E4F08373F6807F0F00109097E
:10276000534F7A5C0768D7404760494F08373F6846
:1027700007F4E051890A4E4F7A5C4768D74087607A
:10278000434F08373F6807F46041490B484F7A5C74
:102790004768D740C760F0BD002100F44072B2F531
:1027A000407F0AD13A4A0832116821F4F811414AAF
:1027B00002401143364A08321160354A70321268BD
:1027C000C0F30B031A43324B70331A60704735491C
:1027D00044390860704733494039086070473649CA
:1027E0000860704701460020294A8C32106820F0AA
:1027F0001F004A1E1043264A8C3210607047014663
:102800000020234A8C32106820F4F8504A1E40EA17
:1028100002201F4A8C3210607047014600201C4A7B
:102820008C32106820F44010084310607047014655
:102830000020174A8C32106820F4400008431060D2
:10284000704701460020124A8C32106820F4403054
:1028500008431060704719490860704739B10C4A45
:102860003032126802430A4B30331A6006E0084ADD
:10287000303212688243064B30331A607047F9B128
:10288000034A343212680243014B34331A601CE0AD
:1028900000380240FFFFF6EA10300024003000202C
:1028A00000004742800E47420024F40000127A00E4
:1028B000EE000020FFFCFF0F5C014742E0114742A1
:1028C0008F4A126882438E4B1A60704739B18C4A26
:1028D000121D126802438A4B1B1D1A6006E0884ACB
:1028E000121D12688243864B1B1D1A60704739B156
:1028F000834A0C3212680243814B0C331A6006E0A3
:102900007F4A0C32126882437D4B0C331A60704749
:1029100039B17B4A103212680243794B10331A6086
:1029200006E0774A103212688243754B10331A6002
:10293000704739B1724A243A12680243704B243B03
:102940001A6006E06E4A243A126882436C4B243BBC
:102950001A60704739B16A4A203A12680243684BDC
:10296000203B1A6006E0664A203A12688243644BB4
:10297000203B1A60704739B1614A1C3A1268024321
:102980005F4B1C3B1A6006E05D4A1C3A12688243AA
:102990005B4B1C3B1A60704739B1594A143A1268B4
:1029A0000243574B143B1A6006E0554A143A12682A
:1029B0008243534B143B1A60704739B1504A103A66
:1029C000126802434E4B103B1A6006E04C4A103A24
:1029D000126882434A4B103B1A60704739B1484A2B
:1029E0001C3212680243464B1C331A6006E0444A0C
:1029F0001C3212688243424B1C331A60704739B153
:102A00003F4A2032126802433D4B20331A6006E0F1
:102A10003B4A203212688243394B20331A60704798
:102A200039B1374A243212680243354B24331A60D5
:102A300006E0334A243212688243314B24331A6051
:102A4000704739B12E4A2C32126802432C4B2C337A
:102A50001A6006E02A4A2C3212688243284B2C3333
:102A60001A60704739B1264A303212680243244B4B
:102A700030331A6006E0224A303212688243204B1B
:102A800030331A607047012808D11D493C3109686C
:102A900041F008011A4A3C32116007E018493C3104
:102AA000096821F00801164A3C321160704739B1BB
:102AB000134A273A12780243114B273B1A7006E05B
:102AC0000F4A273A127882430D4B273B1A70704702
:102AD0000B484030006840F0807009494031086080
:102AE000704701460020064A283A12680A400AB197
:102AF000012000E000207047014926390870704726
:102B00003438024010B501214807FFF745FF002186
:102B10004FF00050FFF740FF10BD30B500220023FA
:102B20007B4C226840F6FE748440A243D1E9004504
:102B30002C438D682C43CD6844EA050303FA00F466
:102B40002243734C226030BD0021016041608160EE
:102B5000C160704739B16E4A1268012383401A433D
:102B60006B4B1A6006E06A4A1268012383409A435D
:102B7000674B1A60704710B551B1654A121D126853
:102B800004090123A3401A43614B1B1D1A6009E08D
:102B90005F4A121D126804090123A3409A435C4B4B
:102BA0001B1D1A6010BD40B15949091D096841F04B
:102BB0000301574A121D116007E05549091D0968B4
:102BC00021F00301524A121D1160704710B53AB14D
:102BD0004F4B1B6801FA00F423434D4C236006E081
:102BE0004B4B1B6801FA00F4A343494C236010BD12
:102BF00008B500220092464A009200F10802009BAC
:102C00001A440092009A116008BD08B50022009293
:102C10003F4A009200F11402009B1A440092009A6D
:102C2000116008BD30B500240023082802D142EA13
:102C3000012401E042EA0144354B00F120052B4418
:102C40001C6030BD08B5014600200090304800905F
:102C50002C2000EB9100009A10440090009800682E
:102C600080B208BD41B12A4A12684FF480538340B4
:102C70001A43274B1A6007E0254A12684FF4805325
:102C800083409A43224B1A60704710B53AB1204BEB
:102C90001B6801FA00F423431D4C236006E01C4B23
:102CA0001B6801FA00F4A343194C236010BD10B552
:102CB00002460020164B34331B6801FA02F423400D
:102CC0000BB1012000E0002010BD01FA00F2104B12
:102CD00034331A60704730B50246002000230C4C94
:102CE000246801FA02F504EA0503094C3434246827
:102CF00001FA02F52C4014B10BB1012000E00020D4
:102D000030BD01FA00F2024B34331A607047000004
:102D100000740040704770477047704770477546B1
:102D200000F02CF8AE4605006946534620F0070037
:102D3000854618B020B5FEF76FF9BDE820404FF08A
:102D400000064FF000074FF000084FF0000B21F095
:102D50000701AC46ACE8C009ACE8C009ACE8C00962
:102D6000ACE8C0098D46704710B50446AFF300804B
:102D70002046BDE81040FDF750BA000000487047FB
:102D80000802002010B591EA030F48BF83F000430A
:102D900000F1E083841A71EB030C05D2121943EBA6
:102DA0000C03001B61EB0C01DFF824E14FEA115426
:102DB000A4EB135C1EEA430F18BF9EEA445F73D076
:102DC00023EA0E03DCF1200E21EA045143F48013C0
:102DD00032D322FA0CFE10EB0E0023FA0CFE41EB6C
:102DE0000E01CCF1200E03FA0EFE10EB0E0051F195
:102DF0000001B1F5801FCCF1200E32D201EB04515D
:102E000012FA0EF2BDE8104058BF7047401C38BFA0
:102E10005FEA420218BF7047002814BF20F001008B
:102E200041F100014FEA410313F5001F38BF70471D
:102E3000A1F1C04100F03EBB012A43EB0302ACF11B
:102E4000200CDCF11F0E32BF4FF0000E23FA0CF302
:102E500010EB030041EB0451B4EB115FD0D0A1EBB8
:102E6000045101F5801149085FEA300001EB04517B
:102E70000ED350F1000038BF12FA0EFE08D1BDE8A3
:102E80001040C9E7401C38BF5FEA4202CAD1C3E71D
:102E9000BDE810404FEA410313F5001F38BF7047EB
:102EA000A1F1C04100F006BB9EEA445F08D011EAE0
:102EB0005E0FBDE8104004BF01F0004100207047E4
:102EC000BDE8104070B500F0A7FA00BF64FBBE3E3D
:102ED0000000E0FF491058BFC1F140415B1058BFEE
:102EE000C3F140438B42EFF3008070472DE9C041AE
:102EF00030B4DFF8A0C23CEA111418BF3CEA131446
:102F000000F0EC8081EA03051CEA111444EAD57450
:102F100018BF1CEA131500F0C780A4EB05044FF09E
:102F2000004545EAC12145EAC32341EA505143EA3D
:102F3000525304F17F74994204F500344FEAC020E3
:102F40004FEAC22208BF904200F09C804FEA13650E
:102F50000FF24016765D4FEA134506FB05F7C7F101
:102F6000807706FB07F74FEAD737A7FB036876425F
:102F7000C8F58038A7FB06CE38BFA8F1010807FBCB
:102F800008E64FF0000EA6FB028CE6FB03CEDCF158
:102F9000000CCEF1004E38BFAEF1010EA6FB0C586E
:102FA0004FF000074FF00005E6FB0E87A1FB08C6B7
:102FB000A0FB07CE16EB0E0645F10005E1FB076509
:102FC00015F1E04E7EBFA4F580345FEA46066D4100
:102FD00016F1800745F100054FEA17274FEA06660C
:102FE00047EA0567A6F1DE46B6F1805F4FEA152590
:102FF0001FD9384624F0010C05EBC471BCF1FE6FFB
:1030000001EB0C1102D8F0BCBDE8008124425CBF8A
:1030100001F5801E9EEAC47F02D4F0BCBDE80081A9
:10302000244238D4F0BCA1F1C041BDE8004100F019
:1030300041BA4FEAD22242EA43524FEAD323A7FBD6
:1030400002864FEAD02040EA415007FB03661EEAA1
:103050000E0F4FEAD12105FB026658BFA6EB0056C2
:10306000B6EB00564FEA520E4EEAC37E18EB0E0E38
:1030700056EB530EBDD518EB02085E417F1C55F18F
:103080000005B6E74FF480154FF000074FF000063B
:103090004FF00008ADE7F0BC4FF0000001F1C04177
:1030A00001F00041BDE8008111EA0C1F0CEA131584
:1030B00000D00CE013EA0C1F00F025804FF0000058
:1030C000F0BC81EA030101F00041BDE80081F0BCE1
:1030D000BDE8004181EA030100F0ECB9F0BCBDE8B5
:1030E000004170B500F098F9097EFC3E00F007B889
:1030F00081EA03014FF0000001F00041704781EACE
:10310000030100F0D7B9F0BCBDE800414FF000006A
:1031100021497047FFFDFBF9F7F5F4F2F0EEEDEB16
:10312000E9E8E6E4E3E1E0DEDDDBDAD8D7D5D4D3C5
:10313000D1D0CFCDCCCBCAC8C7C6C5C4C2C1C0BF11
:10314000BEBDBCBBBAB9B8B7B6B5B4B3B2B1B0AF17
:10315000AEADACABAAA9A8A8A7A6A5A4A3A3A2A1FB
:10316000A09F9F9E9D9C9C9B9A99999897979695B6
:1031700095949393929191908F8F8E8E8D8C8C8B52
:103180008B8A8989888887878685858484838382DA
:10319000828181800000FF070000F87F4FEA115311
:1031A000A3F58063D3F11E03A8BFD3F1200C08DB85
:1031B0004FF0004242EAC12252EA505232FA03F082
:1031C000704709420BD4102BC4BF0020704703F591
:1031D000787CBCF1FF3F05D04FF0FF3070474FF0D7
:1031E0000000704770B500F017F900BF49922480C5
:1031F00000207047F0E710F0004248BF4042B0FAAC
:1032000080F310FA03F10AD0C3F11D0303F58063C4
:103210004FEA415002EB035202EBD12170474FF0CD
:1032200000007047B0FA80F310FA03F10AD0C3F13E
:103230001D0303F580634FEA41504FEA035202EB4E
:10324000D12170474FF000007047000051EA030C95
:1032500017D41CF5801F58BFBCF5801F00F10680F5
:10326000994218BF704708BF9042704707D711F5C1
:10327000801F58BF13F5801F19D4994270478942A7
:1032800070471CF5801F08D5BCF5801FF7D58B4211
:1032900018BF704708BF824270474FF4001C1CEBF8
:1032A000410F38BF1CEB430F01D28B42704770B502
:1032B00000F0B2F8922449004FF000514FF08053D3
:1032C000FFF708BEDFF848C170B51CEA111E1EBF2B
:1032D0001CEA13159EEA0C0F95EA0C0F00F06F80A4
:1032E00081EA030423EA4C134EEAD47E21EA4C110E
:1032F00041F4801143F48013AE44A1FB024CA0FBC7
:103300000365AEF17F7E361955EB0C05A1FB034C2E
:103310004CF10003A0FB021C16EB0C06654153F1B7
:103320000003094218BF46F0010613F4007F0BD1D9
:103330004FEA03314FEA0530340341EA155140EAC0
:1033400016506FF003020AE04FEAC3214FEAC5208E
:10335000F40241EA555140EA56506FF0020202EB86
:103360002E4201EB025585EACE710AD05FEA440C89
:1033700018BF24F0004450F1000041F1000120EAA0
:10338000D47040F2FE7C624500D270BDA84214BFEA
:103390004FF080444FF04044002E08BF0024BEF19F
:1033A000806FA8BFA1F1C041BDE8704080F282806B
:1033B0004FF0000001F1C04101F0004170479EEA6A
:1033C0000C0F0CEA131518BF95EA0C0F06D04FF03E
:1033D000000081EA030E0EF0004170BD00F01CF801
:1033E0008900013E00F007B800F009B84FEA430C2D
:1033F0005FEA5C5C08D081EA030100F05BB84FEA49
:10340000410C5FEA5C5CF6D14FF000000149704767
:103410000000FF070000F87F0EF1020E2EF0030EF1
:103420005EF8046B364205D4012A43EB030515F51B
:10343000001F12D8012841EB010C1CF5001F0CD80D
:103440000ED14FEAD17C15F5001F0CEB4C0C0CF1A2
:10345000020C08BF4CEBD37C04E04FF0080C01E0F9
:103460004FEAD37C0CEB4C0526FA05F606F007066E
:10347000B6F1040C06D20EEB860CBDE870404CF0A1
:10348000010C6047DFE80CF0090B02024FF000412D
:103490004FF00000A1F5002170BD1946104601282B
:1034A00051EB010418BFD4F5001484BF002001F0D3
:1034B000004170BD0808A0F500114FEA31017047C6
:1034C00053EA010C17D41CF5801F58BFBCF5801FB0
:1034D00000F106808B4218BF704708BF82427047D8
:1034E00007D713F5801F58BF11F5801F19D48B42E1
:1034F00070479B4270471CF5801F08D5BCF5801FA4
:10350000F7D5994218BF704708BF904270474FF4F3
:10351000001C1CEB430F38BF1CEB410F01D299423A
:1035200070470FB40CBC03BCFFF7C1BE91EA030F98
:1035300010B581F000413FF52DAC83F0004300F061
:1035400009B8000010B591EA030F48BF83F00043AB
:103550003FF520AC841A71EB030C07D212198CF0E2
:10356000004C43EB0C03001B61EB0C01DFF8A4E102
:103570004FEA1154A4EB135C1EEA430F18BF9EEAF6
:10358000445F00F0B08023EA6E03524221EA045106
:10359000C3EB6E0338BF5B1EDCF1200E25D322FA8D
:1035A0000CFE10EB0E0043FA0CFE41EB0E01CCF1C9
:1035B000200E03FA0EFE10EB0E0051F10001CCF1CB
:1035C000200E29D412FA0EF201EB0451BDE810408E
:1035D00058BF7047401C1CBFB2F1004F7047002815
:1035E0000CBF491C20F00100704712EB020E43EBA8
:1035F000030218BF4FF0010E4EEA4202ACF1200C5C
:10360000DCF11E0E54D943FA0CFE10EB0E0051F102
:10361000FF31CCF11E0ED5D50EF1010E12FA0EFEC1
:10362000404141EB010101EB445C5FEA5C5C10D975
:1036300010EBDE7001EB045138BFBEF1004FBDE866
:10364000104018BF704700280CBF491C20F0010033
:10365000704730D24FEAD42C11F5001124F40064E5
:103660001BD0B1FA81F20B3AA41AA41ED2F12003A6
:10367000914030FA03F31943904001EBCC71002CD8
:1036800001EB0451BDE81040A8BF704701F1C041F3
:103690004FF0000001F000417047B0FA80F310FADB
:1036A00003F100D110BDE41A173C4805C90AE4E74C
:1036B00001EB045110BD491001EB0451BDE810406D
:1036C0004FEA300002E04FF0000170474A0008BFA7
:1036D0000042F8D0B2F5001F28BF704701F000414A
:1036E0004FF0000070479EEA445F07D011EA5E0F7A
:1036F000BDE8104004BF002100207047BDE8104025
:1037000070B5FFF789FE00BF40DFF63E83F0004151
:10371000104670470000E0FF43004FEAD30C4FEA29
:103720003C0C43401FBF40070CF1605113F0FE4FAB
:1037300070471CF0006F03D100200CF0004170476F
:103740000CF0004343EA507010B540EACC0000F0A2
:103750000EF800BF000000924FEA0001FFF7AABE7A
:103760004FF000414FF00000A1F5002170470EF12D
:10377000020E2EF0030E5EF8044B244204D44FEAEE
:103780004102B2F17F4F11D84FEA4003B3F17F4FAE
:103790000CD80ED14FEAD07CB2F17F4F0CEB4C0C21
:1037A0000CF1020C08BF4CEBD17C04E04FF0080C8C
:1037B00001E04FEAD17C0CEB4C0324FA03F404F053
:1037C0000704B4F1040C06D20EEB840CBDE81040E3
:1037D0004CF0010C6047DFE80CF0070802024FF0E4
:1037E0000040A0F5800010BD0846420018BFD2F18D
:1037F000807288BF00F0004010BD4FF04070E1EED5
:10380000100A7047D007F0070F082F084E086E08FF
:103810008D08AC08CC08EB080A0929094809670992
:103820008609A509C409E209000A1F0A3D0A5B0AC4
:10383000780A960AB30AD10AEE0A0A0B270B440B40
:10384000600B7C0B970BB30BCE0BE90B040C1E0C1F
:10385000390C520C6C0C850C9E0CB70CD00CE80C7F
:10386000FF0C170D2E0D450D5B0D710D870D9C0D79
:10387000B10DC60DDA0DEE0D010E140E270E390E28
:103880004B0E5C0E6D0E7E0E8E0E9E0EAD0EBC0EA1
:10389000CA0ED80EE60EF30EFF0E0B0F170F220FF7
:1038A0002D0F370F410F4A0F530F5C0F630F6B0F34
:1038B000720F780F7E0F840F890F8D0F910F940F69
:1038C000970F9A0F9C0F9D0F9E0F9F0F9F0F9E0F9C
:1038D0009D0F9C0F9A0F970F940F910F8D0F890FCB
:1038E000840F7E0F780F720F6B0F630F5C0F530FF7
:1038F0004A0F410F370F2D0F220F170F0B0FFF0E1F
:10390000F30EE60ED80ECA0EBC0EAD0E9E0E8E0E37
:103910007E0E6D0E5C0E4B0E390E270E140E010E30
:10392000EE0DDA0DC60DB10D9C0D870D710D5B0D01
:10393000450D2E0D170DFF0CE80CD00CB70C9E0C8E
:10394000850C6C0C520C390C1E0C040CE90BCE0BC4
:10395000B30B970B7C0B600B440B270B0A0BEE0A87
:10396000D10AB30A960A780A5B0A3D0A1F0A000ABE
:10397000E209C409A50986096709480929090A094C
:10398000EB08CC08AC088D086E084E082F080F080D
:10399000F007D007D007B007910771075207320729
:1039A0001307F406D406B5069606770658063906B8
:1039B0001A06FB05DC05BE05A00581056305450566
:1039C00028050A05ED04CF04B204960479045C04CA
:1039D000400424040904ED03D203B7039C038203CB
:1039E00067034E0334031B030203E902D002B8024B
:1039F000A102890272025B0245022F02190204022F
:103A0000EF01DA01C601B2019F018C017901670162
:103A1000550144013301220112010201F300E400C7
:103A2000D600C800BA00AD00A100950089007E0054
:103A3000730069005F0056004D0044003D003500F2
:103A40002E00280022001C00170013000F000C009D
:103A5000090006000400030002000100010002004A
:103A600003000400060009000C000F0013001700FB
:103A70001C00220028002E0035003D0044004D00AF
:103A800056005F00690073007E0089009500A10068
:103A9000AD00BA00C800D600E400F3000201120134
:103AA0002201330144015501670179018C019F0115
:103AB000B201C601DA01EF01040219022F02450228
:103AC0005B0272028902A102B802D002E90202037B
:103AD0001B0334034E03670382039C03B703D20323
:103AE000ED030904240440045C0479049604B20440
:103AF000CF04ED040A052805450563058105A005E9
:103B0000BE05DC05FB051A0639065806770696063B
:103B1000B506D406F406130732075207710791075A
:103B2000B007D007D007F0070F082F084E086E081F
:103B30008D08AC08CC08EB080A092909480967096F
:103B40008609A509C409E209000A1F0A3D0A5B0AA1
:103B5000780A960AB30AD10AEE0A0A0B270B440B1D
:103B6000600B7C0B970BB30BCE0BE90B040C1E0CFC
:103B7000390C520C6C0C850C9E0CB70CD00CE80C5C
:103B8000FF0C170D2E0D450D5B0D710D870D9C0D56
:103B9000B10DC60DDA0DEE0D010E140E270E390E05
:103BA0004B0E5C0E6D0E7E0E8E0E9E0EAD0EBC0E7E
:103BB000CA0ED80EE60EF30EFF0E0B0F170F220FD4
:103BC0002D0F370F410F4A0F530F5C0F630F6B0F11
:103BD000720F780F7E0F840F890F8D0F910F940F46
:103BE000970F9A0F9C0F9D0F9E0F9F0F9F0F9E0F79
:103BF0009D0F9C0F9A0F970F940F910F8D0F890FA8
:103C0000840F7E0F780F720F6B0F630F5C0F530FD3
:103C10004A0F410F370F2D0F220F170F0B0FFF0EFB
:103C2000F30EE60ED80ECA0EBC0EAD0E9E0E8E0E14
:103C30007E0E6D0E5C0E4B0E390E270E140E010E0D
:103C4000EE0DDA0DC60DB10D9C0D870D710D5B0DDE
:103C5000450D2E0D170DFF0CE80CD00CB70C9E0C6B
:103C6000850C6C0C520C390C1E0C040CE90BCE0BA1
:103C7000B30B970B7C0B600B440B270B0A0BEE0A64
:103C8000D10AB30A960A780A5B0A3D0A1F0A000A9B
:103C9000E209C409A50986096709480929090A0929
:103CA000EB08CC08AC088D086E084E082F080F08EA
:103CB000F007D007D007B007910771075207320706
:103CC0001307F406D406B506960677065806390695
:103CD0001A06FB05DC05BE05A00581056305450543
:103CE00028050A05ED04CF04B204960479045C04A7
:103CF000400424040904ED03D203B7039C038203A8
:103D000067034E0334031B030203E902D002B80227
:103D1000A102890272025B0245022F02190204020B
:103D2000EF01DA01C601B2019F018C01790167013F
:103D3000550144013301220112010201F300E400A4
:103D4000D600C800BA00AD00A100950089007E0031
:103D5000730069005F0056004D0044003D003500CF
:103D60002E00280022001C00170013000F000C007A
:103D70000900060004000300020001000100020027
:103D800003000400060009000C000F0013001700D8
:103D90001C00220028002E0035003D0044004D008C
:103DA00056005F00690073007E0089009500A10045
:103DB000AD00BA00C800D600E400F3000201120111
:103DC0002201330144015501670179018C019F01F2
:103DD000B201C601DA01EF01040219022F02450205
:103DE0005B0272028902A102B802D002E902020358
:103DF0001B0334034E03670382039C03B703D20300
:103E0000ED030904240440045C0479049604B2041C
:103E1000CF04ED040A052805450563058105A005C5
:103E2000BE05DC05FB051A06390658067706960618
:103E3000B506D406F4061307320752077107910737
:103E4000B007D007D007F0070F082F084E086E08FC
:103E50008D08AC08CC08EB080A092909480967094C
:103E60008609A509C409E209000A1F0A3D0A5B0A7E
:103E7000780A960AB30AD10AEE0A0A0B270B440BFA
:103E8000600B7C0B970BB30BCE0BE90B040C1E0CD9
:103E9000390C520C6C0C850C9E0CB70CD00CE80C39
:103EA000FF0C170D2E0D450D5B0D710D870D9C0D33
:103EB000B10DC60DDA0DEE0D010E140E270E390EE2
:103EC0004B0E5C0E6D0E7E0E8E0E9E0EAD0EBC0E5B
:103ED000CA0ED80EE60EF30EFF0E0B0F170F220FB1
:103EE0002D0F370F410F4A0F530F5C0F630F6B0FEE
:103EF000720F780F7E0F840F890F8D0F910F940F23
:103F0000970F9A0F9C0F9D0F9E0F9F0F9F0F9E0F55
:103F10009D0F9C0F9A0F970F940F910F8D0F890F84
:103F2000840F7E0F780F720F6B0F630F5C0F530FB0
:103F30004A0F410F370F2D0F220F170F0B0FFF0ED8
:103F4000F30EE60ED80ECA0EBC0EAD0E9E0E8E0EF1
:103F50007E0E6D0E5C0E4B0E390E270E140E010EEA
:103F6000EE0DDA0DC60DB10D9C0D870D710D5B0DBB
:103F7000450D2E0D170DFF0CE80CD00CB70C9E0C48
:103F8000850C6C0C520C390C1E0C040CE90BCE0B7E
:103F9000B30B970B7C0B600B440B270B0A0BEE0A41
:103FA000D10AB30A960A780A5B0A3D0A1F0A000A78
:103FB000E209C409A50986096709480929090A0906
:103FC000EB08CC08AC088D086E084E082F080F08C7
:103FD000F007D007D007B0079107710752073207E3
:103FE0001307F406D406B506960677065806390672
:103FF0001A06FB05DC05BE05A00581056305450520
:1040000028050A05ED04CF04B204960479045C0483
:10401000400424040904ED03D203B7039C03820384
:1040200067034E0334031B030203E902D002B80204
:10403000A102890272025B0245022F0219020402E8
:10404000EF01DA01C601B2019F018C01790167011C
:10405000550144013301220112010201F300E40081
:10406000D600C800BA00AD00A100950089007E000E
:10407000730069005F0056004D0044003D003500AC
:104080002E00280022001C00170013000F000C0057
:104090000900060004000300020001000100020004
:1040A00003000400060009000C000F0013001700B5
:1040B0001C00220028002E0035003D0044004D0069
:1040C00056005F00690073007E0089009500A10022
:1040D000AD00BA00C800D600E400F30002011201EE
:1040E0002201330144015501670179018C019F01CF
:1040F000B201C601DA01EF01040219022F024502E2
:104100005B0272028902A102B802D002E902020334
:104110001B0334034E03670382039C03B703D203DC
:10412000ED030904240440045C0479049604B204F9
:10413000CF04ED040A052805450563058105A005A2
:10414000BE05DC05FB051A063906580677069606F5
:10415000B506D406F4061307320752077107910714
:10416000B007D007844100080000002000010000D3
:10417000C401000884420008000100206807000014
:10418000E0010008007A030A0000000000000000BF
:1041900001020304060708090000000000000000F7
:1041A0000000F03F88DF8D425CFCFFBF6D5FF6587A
:1041B000B9F8EF3F000000000000F03F00000000F1
:1041C00000000040000000000000F03F243E8C0B87
:1041D000547B7A3E0000000000000000333333338C
:1041E0003333E33F00000000000000000000000047
:1041F00000000000000000000000000000000000BF
:1042000000000000000000000000000000000000AE
:10421000000000000000000000000000000000009E
:10422000000000000000000000000000000000008E
:1042300000000000FFFFFFFFFFFFFFFFFFFFFFFF8A
:10424000000000000000000000000000000000006E
:1042500000000000900101000000000000000000CC
:10426000000000000000000000000000000000004E
:10427000000000000000010203040102030406071D
:044280000809000029
:040000050800018965
:00000001FF
